S01400007472616E736D697373696F6E2E73726563E6
S11300000C942A000C943F000C943F000C943F0085
S11300100C943F000C943F000C943F000C943F0060
S11300200C943F000C943F000C943F000C943F0050
S11300300C943F000C943F000C943F000C943F0040
S11300400C943F000C943F000C943F000C943F0030
S11300500C943F0011241FBECFE5D8E0DEBFCDBF16
S113006010E0A0E6B0E0E0EBF0E002C005900D92F5
S1130070A236B107D9F70E9441000C9456000C94A3
S113008000008EEF81BB1ABA8FEF85BB15BA809141
S1130090610080BD8091600089B988E18AB98EE0F1
S11300A080BD81EF5D9BFECF8CB9FCCFF894FFCF70
S10500B0060044
S9030000FC
