S01A00006E6F64655F6D63755F636F6D6D5F746573742E7372656396
S11300000C942A000C943F000C943F000C943F0085
S11300100C943F000C943F000C943F000C943F0060
S11300200C943F000C943F000C943F000C943F0050
S11300300C943F000C943F000C943F000C943F0040
S11300400C943F000C943F000C943F000C943F0030
S11300500C943F0011241FBECFE5D8E0DEBFCDBF16
S113006010E0A0E6B0E0EEE7F1E002C005900D92EA
S1130070AA36B107D9F70E9489000C94BD000C94EC
S113008000002AB128612AB920B5266820BDDC0108
S1130090CB01880F991FAA1FBB1F880F991FAA1F86
S11300A0BB1F9C01AD01220F331F441F551F220F9C
S11300B0331F441F551F60E074E284EF90E00E94F8
S11300C09B008FEF820F89B9DA01C9010197A10959
S11300D0B109892F9A2FAB2FBB2780BD08955D9B53
S11300E0FECF8CB908950F931F93CF93FC018081A9
S11300F0882359F08F01C0E00E946F00CF5FF801A0
S1130100EC0FF11D80818111F7CFCF911F910F91D9
S1130110089560E875E280E090E00E94410080E686
S113012090E00E947300D09AD198D99A85E690E025
S11301300E947300FBCFA1E21A2EAA1BBB1BFD0178
S11301400DC0AA1FBB1FEE1FFF1FA217B307E407B2
S1130150F50720F0A21BB30BE40BF50B661F771F0A
S1130160881F991F1A9469F76095709580959095EA
S11101709B01AC01BD01CF010895F894FFCFAF
S10D017E544553540053454E440009
S9030000FC
