:100000000C942A000C9434000C9434000C943400AA
:100010000C9434000C9434000C9434000C94340090
:100020000C9434000C9434000C9434000C94340080
:100030000C9434000C9434000C9434000C94340070
:100040000C9434000C9434000C9434000C94340060
:100050000C94340011241FBECFE5D8E0DEBFCDBF25
:100060000E9436000C9444000C9400001ABA8FEFE2
:1000700084BBC89B02C0A89A01C015BAC99B02C024
:0C008000A99AF7CF15BAF5CFF894FFCF7E
:00000001FF
